S01100004C4544546F67676C652E73726563DC
S11300000C9482000C948C000C948C000C948C0046
S11300100C948C000C948C000C948C000C948C002C
S11300200C948C000C948C000C948C000C948C001C
S11300300C948C000C948C000C948C000C948C000C
S11300400C948C000C948C000C948C000C948C00FC
S11300500C948C000C948C000C948C000C948C00EC
S11300600C948C000C948C000C948C000C948C00DC
S11300700C948C000C948C000C948C000C948C00CC
S11300800C948C000C948C000C948C000C948C00BC
S11300900C948C000C948C000C948C000C948C00AC
S11300A00C948C000C948C000C948C000C948C009C
S11300B00C948C000C948C000C948C000C948C008C
S11300C00C948C000C948C000C948C000C948C007C
S11300D00C948C000C948C000C948C000C948C006C
S11300E00C948C000C948C000C948C000C948C005C
S11300F00C948C000C948C000C948C000C948C004C
S11301000C948C0011241FBECFEFCDBFDFE7DEBF00
S11301100E9491000C9409010C9400000E94EE00CE
S113012008950E948E00579904C089B1806489B9EA
S1130130FACF89B18F7B89B9F6CF1092A90080E0FC
S1130140089580E0089580E0089580E008C0E82FD5
S1130150F0E0E05FFB4F9081986090838F5F883080
S1130160B0F380E008C0E82FF0E0E05DFB4F908141
S1130170986090838F5F8830B0F380E008C0E82FE8
S1130180F0E0E05BFB4F9081986090838F5F883054
S1130190B0F380E008C0E82FF0E0E059FB4F908115
S11301A0986090838F5F8830B0F380E008C0E82FB8
S11301B0F0E0E057FB4F9081986090838F5F883028
S11301C0B0F380E008C0E82FF0E0E055FB4F9081E9
S11301D0986090838F5F8830B0F308950E94A500E3
S11301E089B18F7B89B988B1806488B988B18F77E8
S11301F088B9E7E5F4E08081886080830E94A100EB
S11302000E9407010E94A3000E949D00089580E0BF
S10902100895F894FFCFED
S9030000FC
